{
  "contractName": "Vote",
  "abi": [
    {
      "inputs": [
        {
          "internalType": "string",
          "name": "_name",
          "type": "string"
        },
        {
          "internalType": "uint256",
          "name": "_regEnd",
          "type": "uint256"
        },
        {
          "internalType": "uint256",
          "name": "_voteStart",
          "type": "uint256"
        },
        {
          "internalType": "uint256",
          "name": "_voteEnd",
          "type": "uint256"
        }
      ],
      "stateMutability": "nonpayable",
      "type": "constructor"
    },
    {
      "inputs": [
        {
          "internalType": "uint256",
          "name": "",
          "type": "uint256"
        }
      ],
      "name": "candidateNames",
      "outputs": [
        {
          "internalType": "string",
          "name": "",
          "type": "string"
        }
      ],
      "stateMutability": "view",
      "type": "function",
      "constant": true
    },
    {
      "inputs": [
        {
          "internalType": "string",
          "name": "",
          "type": "string"
        }
      ],
      "name": "candidates",
      "outputs": [
        {
          "internalType": "bool",
          "name": "initalized",
          "type": "bool"
        },
        {
          "internalType": "string",
          "name": "name",
          "type": "string"
        },
        {
          "internalType": "uint256",
          "name": "numVotes",
          "type": "uint256"
        }
      ],
      "stateMutability": "view",
      "type": "function",
      "constant": true
    },
    {
      "inputs": [
        {
          "internalType": "address",
          "name": "",
          "type": "address"
        }
      ],
      "name": "hasVoted",
      "outputs": [
        {
          "internalType": "bool",
          "name": "",
          "type": "bool"
        }
      ],
      "stateMutability": "view",
      "type": "function",
      "constant": true
    },
    {
      "inputs": [],
      "name": "initalized",
      "outputs": [
        {
          "internalType": "bool",
          "name": "",
          "type": "bool"
        }
      ],
      "stateMutability": "view",
      "type": "function",
      "constant": true
    },
    {
      "inputs": [],
      "name": "name",
      "outputs": [
        {
          "internalType": "string",
          "name": "",
          "type": "string"
        }
      ],
      "stateMutability": "view",
      "type": "function",
      "constant": true
    },
    {
      "inputs": [],
      "name": "regEnd",
      "outputs": [
        {
          "internalType": "uint256",
          "name": "",
          "type": "uint256"
        }
      ],
      "stateMutability": "view",
      "type": "function",
      "constant": true
    },
    {
      "inputs": [],
      "name": "startTime",
      "outputs": [
        {
          "internalType": "uint256",
          "name": "",
          "type": "uint256"
        }
      ],
      "stateMutability": "view",
      "type": "function",
      "constant": true
    },
    {
      "inputs": [],
      "name": "voteEnd",
      "outputs": [
        {
          "internalType": "uint256",
          "name": "",
          "type": "uint256"
        }
      ],
      "stateMutability": "view",
      "type": "function",
      "constant": true
    },
    {
      "inputs": [],
      "name": "voteStart",
      "outputs": [
        {
          "internalType": "uint256",
          "name": "",
          "type": "uint256"
        }
      ],
      "stateMutability": "view",
      "type": "function",
      "constant": true
    },
    {
      "inputs": [
        {
          "internalType": "string",
          "name": "_name",
          "type": "string"
        }
      ],
      "name": "addCandidate",
      "outputs": [],
      "stateMutability": "nonpayable",
      "type": "function"
    },
    {
      "inputs": [],
      "name": "getCandidates",
      "outputs": [
        {
          "internalType": "string[]",
          "name": "",
          "type": "string[]"
        }
      ],
      "stateMutability": "view",
      "type": "function",
      "constant": true
    },
    {
      "inputs": [
        {
          "internalType": "string",
          "name": "_name",
          "type": "string"
        }
      ],
      "name": "vote",
      "outputs": [],
      "stateMutability": "nonpayable",
      "type": "function"
    }
  ],
  "bytecode": "0x60806040523480156200001157600080fd5b5060405162001a0638038062001a0683398181016040528101906200003791906200032e565b4283116200007c576040517f08c379a000000000000000000000000000000000000000000000000000000000815260040162000073906200050a565b60405180910390fd5b428211620000c1576040517f08c379a0000000000000000000000000000000000000000000000000000000008152600401620000b890620004e8565b60405180910390fd5b42811162000106576040517f08c379a0000000000000000000000000000000000000000000000000000000008152600401620000fd9062000482565b60405180910390fd5b8282116200014b576040517f08c379a00000000000000000000000000000000000000000000000000000000081526004016200014290620004c6565b60405180910390fd5b81811162000190576040517f08c379a00000000000000000000000000000000000000000000000000000000081526004016200018790620004a4565b60405180910390fd5b8360009080519060200190620001a8929190620001e9565b504260038190555082600481905550816005819055508060068190555060018060006101000a81548160ff0219169083151502179055505050505062000824565b828054620001f790620005dc565b90600052602060002090601f0160209004810192826200021b576000855562000267565b82601f106200023657805160ff191683800117855562000267565b8280016001018555821562000267579182015b828111156200026657825182559160200191906001019062000249565b5b5090506200027691906200027a565b5090565b5b80821115620002955760008160009055506001016200027b565b5090565b6000620002b0620002aa8462000555565b6200052c565b905082815260208101848484011115620002cf57620002ce620006ab565b5b620002dc848285620005a6565b509392505050565b600082601f830112620002fc57620002fb620006a6565b5b81516200030e84826020860162000299565b91505092915050565b60008151905062000328816200080a565b92915050565b600080600080608085870312156200034b576200034a620006b5565b5b600085015167ffffffffffffffff8111156200036c576200036b620006b0565b5b6200037a87828801620002e4565b94505060206200038d8782880162000317565b9350506040620003a08782880162000317565b9250506060620003b38782880162000317565b91505092959194509250565b6000620003ce601c836200058b565b9150620003db82620006cb565b602082019050919050565b6000620003f56022836200058b565b91506200040282620006f4565b604082019050919050565b60006200041c602a836200058b565b9150620004298262000743565b604082019050919050565b600062000443601e836200058b565b9150620004508262000792565b602082019050919050565b60006200046a6024836200058b565b91506200047782620007bb565b604082019050919050565b600060208201905081810360008301526200049d81620003bf565b9050919050565b60006020820190508181036000830152620004bf81620003e6565b9050919050565b60006020820190508181036000830152620004e1816200040d565b9050919050565b60006020820190508181036000830152620005038162000434565b9050919050565b6000602082019050818103600083015262000525816200045b565b9050919050565b6000620005386200054b565b905062000546828262000612565b919050565b6000604051905090565b600067ffffffffffffffff82111562000573576200057262000677565b5b6200057e82620006ba565b9050602081019050919050565b600082825260208201905092915050565b6000819050919050565b60005b83811015620005c6578082015181840152602081019050620005a9565b83811115620005d6576000848401525b50505050565b60006002820490506001821680620005f557607f821691505b602082108114156200060c576200060b62000648565b5b50919050565b6200061d82620006ba565b810181811067ffffffffffffffff821117156200063f576200063e62000677565b5b80604052505050565b7f4e487b7100000000000000000000000000000000000000000000000000000000600052602260045260246000fd5b7f4e487b7100000000000000000000000000000000000000000000000000000000600052604160045260246000fd5b600080fd5b600080fd5b600080fd5b600080fd5b6000601f19601f8301169050919050565b7f566f746520656e642069732073657420696e2074686520706173742100000000600082015250565b7f566f746520656e6420697320736574206265666f726520766f7465207374617260008201527f7421000000000000000000000000000000000000000000000000000000000000602082015250565b7f566f746520737461727420697320736574206265666f7265207265676973747260008201527f6174696f6e20656e642100000000000000000000000000000000000000000000602082015250565b7f566f74652073746172742069732073657420696e207468652070617374210000600082015250565b7f526567697374726174696f6e20656e642069732073657420696e20746865207060008201527f6173742100000000000000000000000000000000000000000000000000000000602082015250565b62000815816200059c565b81146200082157600080fd5b50565b6111d280620008346000396000f3fe608060405234801561001057600080fd5b50600436106100b45760003560e01c806378e979251161007157806378e979251461017d5780638287e42f1461019b578063c5539cc2146101cb578063ddbe8f09146101fd578063e031535b1461021b578063fc36e15b14610239576100b4565b806306a49fce146100b957806306fdde03146100d757806309eef43e146100f557806345cb058414610125578063462e91ec146101435780635be1a0911461015f575b600080fd5b6100c1610255565b6040516100ce9190610c9a565b60405180910390f35b6100df61032e565b6040516100ec9190610d15565b60405180910390f35b61010f600480360381019061010a91906109e7565b6103bc565b60405161011c9190610cbc565b60405180910390f35b61012d6103dc565b60405161013a9190610dd7565b60405180910390f35b61015d60048036038101906101589190610a14565b6103e2565b005b61016761055c565b6040516101749190610cbc565b60405180910390f35b61018561056f565b6040516101929190610dd7565b60405180910390f35b6101b560048036038101906101b09190610a5d565b610575565b6040516101c29190610d15565b60405180910390f35b6101e560048036038101906101e09190610a14565b610621565b6040516101f493929190610cd7565b60405180910390f35b6102056106f6565b6040516102129190610dd7565b60405180910390f35b6102236106fc565b6040516102309190610dd7565b60405180910390f35b610253600480360381019061024e9190610a14565b610702565b005b60606002805480602002602001604051908101604052809291908181526020016000905b8282101561032557838290600052602060002001805461029890610f43565b80601f01602080910402602001604051908101604052809291908181526020018280546102c490610f43565b80156103115780601f106102e657610100808354040283529160200191610311565b820191906000526020600020905b8154815290600101906020018083116102f457829003601f168201915b505050505081526020019060010190610279565b50505050905090565b6000805461033b90610f43565b80601f016020809104026020016040519081016040528092919081815260200182805461036790610f43565b80156103b45780601f10610389576101008083540402835291602001916103b4565b820191906000526020600020905b81548152906001019060200180831161039757829003601f168201915b505050505081565b60076020528060005260406000206000915054906101000a900460ff1681565b60045481565b600454421115610427576040517f08c379a000000000000000000000000000000000000000000000000000000000815260040161041e90610d37565b60405180910390fd5b6008816040516104379190610c83565b908152602001604051809103902060000160009054906101000a900460ff1615610496576040517f08c379a000000000000000000000000000000000000000000000000000000000815260040161048d90610d97565b60405180910390fd5b604051806060016040528060011515815260200182815260200160008152506008826040516104c59190610c83565b908152602001604051809103902060008201518160000160006101000a81548160ff021916908315150217905550602082015181600101908051906020019061050f9291906108aa565b50604082015181600201559050506002819080600181540180825580915050600190039060005260206000200160009091909190915090805190602001906105589291906108aa565b5050565b600160009054906101000a900460ff1681565b60035481565b6002818154811061058557600080fd5b9060005260206000200160009150905080546105a090610f43565b80601f01602080910402602001604051908101604052809291908181526020018280546105cc90610f43565b80156106195780601f106105ee57610100808354040283529160200191610619565b820191906000526020600020905b8154815290600101906020018083116105fc57829003601f168201915b505050505081565b6008818051602081018201805184825260208301602085012081835280955050505050506000915090508060000160009054906101000a900460ff169080600101805461066d90610f43565b80601f016020809104026020016040519081016040528092919081815260200182805461069990610f43565b80156106e65780601f106106bb576101008083540402835291602001916106e6565b820191906000526020600020905b8154815290600101906020018083116106c957829003601f168201915b5050505050908060020154905083565b60065481565b60055481565b600554421015610747576040517f08c379a000000000000000000000000000000000000000000000000000000000815260040161073e90610db7565b60405180910390fd5b600654421061078b576040517f08c379a000000000000000000000000000000000000000000000000000000000815260040161078290610d57565b60405180910390fd5b600760003373ffffffffffffffffffffffffffffffffffffffff1673ffffffffffffffffffffffffffffffffffffffff16815260200190815260200160002060009054906101000a900460ff1615610818576040517f08c379a000000000000000000000000000000000000000000000000000000000815260040161080f90610d77565b60405180910390fd5b6001600760003373ffffffffffffffffffffffffffffffffffffffff1673ffffffffffffffffffffffffffffffffffffffff16815260200190815260200160002060006101000a81548160ff0219169083151502179055506008816040516108809190610c83565b908152602001604051809103902060020160008154809291906108a290610fa6565b919050555050565b8280546108b690610f43565b90600052602060002090601f0160209004810192826108d8576000855561091f565b82601f106108f157805160ff191683800117855561091f565b8280016001018555821561091f579182015b8281111561091e578251825591602001919060010190610903565b5b50905061092c9190610930565b5090565b5b80821115610949576000816000905550600101610931565b5090565b600061096061095b84610e17565b610df2565b90508281526020810184848401111561097c5761097b611081565b5b610987848285610f01565b509392505050565b60008135905061099e8161116e565b92915050565b600082601f8301126109b9576109b861107c565b5b81356109c984826020860161094d565b91505092915050565b6000813590506109e181611185565b92915050565b6000602082840312156109fd576109fc61108b565b5b6000610a0b8482850161098f565b91505092915050565b600060208284031215610a2a57610a2961108b565b5b600082013567ffffffffffffffff811115610a4857610a47611086565b5b610a54848285016109a4565b91505092915050565b600060208284031215610a7357610a7261108b565b5b6000610a81848285016109d2565b91505092915050565b6000610a968383610b22565b905092915050565b6000610aa982610e58565b610ab38185610e7b565b935083602082028501610ac585610e48565b8060005b85811015610b015784840389528151610ae28582610a8a565b9450610aed83610e6e565b925060208a01995050600181019050610ac9565b50829750879550505050505092915050565b610b1c81610ecb565b82525050565b6000610b2d82610e63565b610b378185610e8c565b9350610b47818560208601610f10565b610b5081611090565b840191505092915050565b6000610b6682610e63565b610b708185610e9d565b9350610b80818560208601610f10565b610b8981611090565b840191505092915050565b6000610b9f82610e63565b610ba98185610eae565b9350610bb9818560208601610f10565b80840191505092915050565b6000610bd2601783610e9d565b9150610bdd826110a1565b602082019050919050565b6000610bf5601183610e9d565b9150610c00826110ca565b602082019050919050565b6000610c18601783610e9d565b9150610c23826110f3565b602082019050919050565b6000610c3b601d83610e9d565b9150610c468261111c565b602082019050919050565b6000610c5e601783610e9d565b9150610c6982611145565b602082019050919050565b610c7d81610ef7565b82525050565b6000610c8f8284610b94565b915081905092915050565b60006020820190508181036000830152610cb48184610a9e565b905092915050565b6000602082019050610cd16000830184610b13565b92915050565b6000606082019050610cec6000830186610b13565b8181036020830152610cfe8185610b5b565b9050610d0d6040830184610c74565b949350505050565b60006020820190508181036000830152610d2f8184610b5b565b905092915050565b60006020820190508181036000830152610d5081610bc5565b9050919050565b60006020820190508181036000830152610d7081610be8565b9050919050565b60006020820190508181036000830152610d9081610c0b565b9050919050565b60006020820190508181036000830152610db081610c2e565b9050919050565b60006020820190508181036000830152610dd081610c51565b9050919050565b6000602082019050610dec6000830184610c74565b92915050565b6000610dfc610e0d565b9050610e088282610f75565b919050565b6000604051905090565b600067ffffffffffffffff821115610e3257610e3161104d565b5b610e3b82611090565b9050602081019050919050565b6000819050602082019050919050565b600081519050919050565b600081519050919050565b6000602082019050919050565b600082825260208201905092915050565b600082825260208201905092915050565b600082825260208201905092915050565b600081905092915050565b6000610ec482610ed7565b9050919050565b60008115159050919050565b600073ffffffffffffffffffffffffffffffffffffffff82169050919050565b6000819050919050565b82818337600083830152505050565b60005b83811015610f2e578082015181840152602081019050610f13565b83811115610f3d576000848401525b50505050565b60006002820490506001821680610f5b57607f821691505b60208210811415610f6f57610f6e61101e565b5b50919050565b610f7e82611090565b810181811067ffffffffffffffff82111715610f9d57610f9c61104d565b5b80604052505050565b6000610fb182610ef7565b91507fffffffffffffffffffffffffffffffffffffffffffffffffffffffffffffffff821415610fe457610fe3610fef565b5b600182019050919050565b7f4e487b7100000000000000000000000000000000000000000000000000000000600052601160045260246000fd5b7f4e487b7100000000000000000000000000000000000000000000000000000000600052602260045260246000fd5b7f4e487b7100000000000000000000000000000000000000000000000000000000600052604160045260246000fd5b600080fd5b600080fd5b600080fd5b600080fd5b6000601f19601f8301169050919050565b7f526567697374726174696f6e2068617320656e64656421000000000000000000600082015250565b7f566f74696e672068617320656e64656421000000000000000000000000000000600082015250565b7f596f75206861766520616c726561647920766f74656421000000000000000000600082015250565b7f43616e64696461746520697320616c726561647920656e746572656421000000600082015250565b7f566f74696e6720686173206e6f74207374617274656421000000000000000000600082015250565b61117781610eb9565b811461118257600080fd5b50565b61118e81610ef7565b811461119957600080fd5b5056fea264697066735822122022d58889a66129b4c8f4860d0aa417be921498ffaa2526aa5e9e7f6be7e77da364736f6c63430008060033",
  "immutableReferences": {},
  "source": "// SPDX-License-Identifier: MIT\npragma solidity >=0.4.22 <0.9.0;\n\ncontract Vote {\n    struct Candidate {\n        bool initalized;\n        string name;\n        uint256 numVotes;\n    }\n\n    string public name;\n    bool public initalized;\n    string[] public candidateNames;\n    uint256 public startTime; // TODO: Needed? Maybe make this an event?\n    uint256 public regEnd;\n    uint256 public voteStart;\n    uint256 public voteEnd;\n    mapping(address => bool) public hasVoted;\n    mapping(string => Candidate) public candidates;\n\n    constructor(\n        string memory _name,\n        uint256 _regEnd,\n        uint256 _voteStart,\n        uint256 _voteEnd\n    ) {\n        require(\n            _regEnd > block.timestamp,\n            \"Registration end is set in the past!\"\n        );\n        require(_voteStart > block.timestamp, \"Vote start is set in the past!\");\n        require(_voteEnd > block.timestamp, \"Vote end is set in the past!\");\n        require(\n            _voteStart > _regEnd,\n            \"Vote start is set before registration end!\"\n        );\n        require(_voteEnd > _voteStart, \"Vote end is set before vote start!\");\n\n        name = _name;\n        startTime = block.timestamp;\n        regEnd = _regEnd;\n        voteStart = _voteStart;\n        voteEnd = _voteEnd;\n        initalized = true;\n    }\n\n    function addCandidate(string memory _name) external {\n        require(block.timestamp <= regEnd, \"Registration has ended!\");\n        require(!candidates[_name].initalized, \"Candidate is already entered!\");\n\n        candidates[_name] = Candidate(true, _name, 0);\n        candidateNames.push(_name);\n    }\n\n    function getCandidates() external view returns (string[] memory) {\n        return candidateNames;\n    }\n\n    function vote(string memory _name) external {\n        require(block.timestamp >= voteStart, \"Voting has not started!\");\n        require(block.timestamp < voteEnd, \"Voting has ended!\");\n        require(!hasVoted[msg.sender], \"You have already voted!\");\n        hasVoted[msg.sender] = true;\n\n        candidates[_name].numVotes++;\n    }\n}\n",
  "sourcePath": "/Users/kylesklareski/Documents/projects/devjob/vote/contracts/Vote.sol",
  "compiler": {
    "name": "solc",
    "version": "0.8.6+commit.11564f7e.Emscripten.clang"
  },
  "schemaVersion": "3.4.3",
  "updatedAt": "2021-10-20T16:45:37.765Z",
  "networkType": "ethereum",
  "devdoc": {
    "kind": "dev",
    "methods": {},
    "version": 1
  },
  "userdoc": {
    "kind": "user",
    "methods": {},
    "version": 1
  }
}